S0100000434F54535F494D542E7372656392
S11300000C942A000C9475020C949E020C94C70262
S11300100C9447000C9447000C9447000C94470040
S11300200C9447000C9447000C9447000C94470030
S11300300C9447000C9447000C9447000C94470020
S11300400C9447000C9447000C9447000C94470010
S11300500C94470011241FBECFE5D8E0DEBFCDBF0E
S113006010E0A0E6B0E0EAE3F9E002C005900D92EA
S1130070A238B107D9F720E0A2E8B0E001C01D9290
S1130080A838B207E1F70E9449000C949B040C9431
S113009000000E94D6000E9418018C3348F062E0F0
S11300A081E00E940C0180E690E00E94F900F3CF09
S11300B08E3148F062E081E00E940C018BE690E012
S11300C00E94F900E8CF62E081E00E940C0186E71B
S11300D090E00E94F900DFCFFC019081933019F485
S11300E080EC87B90BC0913019F480E487B906C05D
S11300F0911102C017B802C080E887B98181806875
S113010086B9089597B1907E8770892B87B986B197
S1130110806486B9349BFECF86B1806186B984B190
S113012095B10895CF93C82F40E067E082E00E9424
S1130130DC0140E066E082E00E94DC016C2F83E099
S11301400E945F0241E065E082E00E94DC018FE8EA
S113015091E00197F1F700C0000040E065E082E023
S11301600E94DC01CF910895CF93C82F41E067E04E
S113017082E00E94DC0140E066E082E00E94DC0153
S11301806C2F83E00E945F0241E065E082E00E9400
S1130190DC018FE891E00197F1F700C0000040E036
S11301A065E082E00E94DC01CF9108956FEF82E068
S11301B00E94C6014FEF60E081E00E9443014FEFCF
S11301C061E081E00E9443014FEF62E081E00E9420
S11301D043018FE39FE10197F1F700C0000088E33A
S11301E00E9492008CE00E94920081E00E949200A2
S11301F008950F931F93CF938C01C0E003C00E9416
S1130200B400CF5FF801EC0FF11D80818111F7CFAD
S1130210CF911F910F910895882329F0813011F413
S1130220605C01C060E080E8860F0E94920008953F
S1130230CF93DF9300D0CDB7DEB783E0898387E027
S11302408A83CE0101960E946C0081E00E948200A4
S11302509C01A6E9B0E00E948C040E9491032AE06C
S113026037ED43E250E40E941F0420E030ED4FEBF1
S113027054E40E94F0020E946203862F0F900F90B4
S1130280DF91CF910895683008F078C041113CC0E7
S1130290813099F028F08230E9F0833041F170C068
S11302A02AB381E090E002C0880F991F6A95E2F7B3
S11302B0809582238ABB80E0089527B381E090E093
S11302C002C0880F991F6A95E2F78095822387BB45
S11302D080E0089524B381E090E002C0880F991F64
S11302E06A95E2F78095822384BB80E0089521B368
S11302F081E090E002C0880F991F6A95E2F780952B
S1130300822381BB80E008954130E1F5813091F092
S113031028F08230D9F0833029F136C02AB381E045
S113032090E002C0880F991F6A95E2F7822B8ABB7E
S113033080E0089527B381E090E002C0880F991F00
S11303406A95E2F7822B87BB80E0089524B381E0AD
S113035090E002C0880F991F6A95E2F7822B84BB54
S113036080E0089521B381E090E002C0880F991FD6
S11303706A95E2F7822B81BB80E0089581E00895BD
S113038081E0089581E0089581E00895813049F085
S113039028F0823049F0833051F00CC06ABB80E011
S11303A0089567BB80E0089564BB80E0089561BB55
S11303B080E0089581E00895683008F078C0411124
S11303C03CC0813099F028F08230E9F0833041F16B
S11303D070C02BB381E090E002C0880F991F6A952A
S11303E0E2F7809582238BBB80E0089528B381E0F7
S11303F090E002C0880F991F6A95E2F780958223E6
S113040088BB80E0089525B381E090E002C0880FA6
S1130410991F6A95E2F78095822385BB80E0089551
S113042022B381E090E002C0880F991F6A95E2F739
S11304308095822382BB80E008954130E1F58130CC
S113044091F028F08230D9F0833029F136C02BB3F3
S113045081E090E002C0880F991F6A95E2F7822B31
S11304608BBB80E0089528B381E090E002C0880F40
S1130470991F6A95E2F7822B88BB80E0089525B323
S113048081E090E002C0880F991F6A95E2F7822B01
S113049085BB80E0089522B381E090E002C0880F1C
S11304A0991F6A95E2F7822B82BB80E0089581E070
S11304B0089581E0089581E0089581E008958130F0
S11304C049F028F0823049F0833051F00CC06BBB06
S11304D080E0089568BB80E0089565BB80E00895DE
S11304E062BB80E0089581E008951F920F920FB6D9
S11304F00F9211242F933F934F935F936F937F93A6
S11305008F939F93AF93BF93EF93FF93E0918600F4
S1130510F0918700309709F00995FF91EF91BF9111
S1130520AF919F918F917F916F915F914F913F9187
S11305302F910F900FBE0F901F9018951F920F923E
S11305400FB60F9211242F933F934F935F936F93A2
S11305507F938F939F93AF93BF93EF93FF93E09118
S11305608400F0918500309709F00995FF91EF918F
S1130570BF91AF919F918F917F916F915F914F91B7
S11305803F912F910F900FBE0F901F9018951F92BF
S11305900F920FB60F9211242F933F934F935F93B3
S11305A06F937F938F939F93AF93BF93EF93FF9337
S11305B0E0918200F0918300309709F00995FF9152
S11305C0EF91BF91AF919F918F917F916F915F91C7
S11305D04F913F912F910F900FBE0F901F90189540
S11305E00E9404030C94E5030E94DE0358F00E9469
S11305F0D70340F029F45F3F29F00C94CE03511146
S11306000C9419040C94D4030E94F60368F3992300
S1130610B1F3552391F3951B550BBB27AA276217FA
S11306207307840738F09F5F5F4F220F331F441F07
S1130630AA1FA9F335D00E2E3AF0E0E832D091503B
S11306405040E695001CCAF72BD0FE2F29D0660F28
S1130650771F881FBB1F261737074807AB07B0E86B
S113066009F0BB0B802DBF01FF2793585F4F3AF071
S11306709E3F510578F00C94CE030C9419045F3F0F
S1130680E4F3983ED4F3869577956795B795F795F7
S11306909F5FC9F7880F911D9695879597F90895DF
S11306A0E1E0660F771F881FBB1F6217730784077B
S11306B0BA0720F0621B730B840BBA0BEE1F88F78A
S11306C0E09508950E94FE0388F09F5798F0B92F93
S11306D09927B751B0F0E1F0660F771F881F991F73
S11306E01AF0BA95C9F714C0B13091F00E941804F9
S11306F0B1E008950C941804672F782F8827B85F09
S113070039F0B93FCCF3869577956795B395D9F7CA
S11307103EF490958095709561957F4F8F4F9F4FD4
S11307200895E89409C097FB3EF4909580957095E0
S113073061957F4F8F4F9F4F9923A9F0F92F96E929
S1130740BB279395F695879577956795B795F1119E
S1130750F8CFFAF4BB0F11F460FF1BC06F5F7F4F3B
S11307608F4F9F4F16C0882311F096E911C077234D
S113077021F09EE8872F762F05C0662371F096E856
S1130780862F70E060E02AF09A95660F771F881F25
S1130790DAF7880F9695879597F9089597F99F67E3
S11307A080E870E060E008959FEF80EC08950024F5
S11307B00A941616170618060906089500240A94C2
S11307C012161306140605060895092E0394000C48
S11307D011F4882352F0BB0F40F4BF2B11F460FFD7
S11307E004C06F5F7F4F8F4F9F4F089557FD905800
S11307F0440F551F59F05F3F71F04795880F97FBE1
S1130800991F61F09F3F79F087950895121613069A
S11308101406551FF2CF4695F1DF08C016161706C9
S11308201806991FF1CF86957105610508940895FE
S1130830E894BB2766277727CB0197F908950E9490
S113084032040C94E5030E94D70338F00E94DE03BF
S113085020F0952311F00C94CE030C94D4031124AE
S11308600C9419040E94F60370F3959FC1F3950F3D
S113087050E0551F629FF001729FBB27F00DB11D20
S1130880639FAA27F00DB11DAA1F649F6627B00DB0
S1130890A11D661F829F2227B00DA11D621F739F99
S11308A0B00DA11D621F839FA00D611D221F749FA7
S11308B03327A00D611D231F849F600D211D822FEE
S11308C0762F6A2F11249F5750409AF0F1F0882315
S11308D04AF0EE0FFF1FBB1F661F771F881F915042
S11308E05040A9F79E3F510580F00C94CE030C9420
S11308F019045F3FE4F3983ED4F3869577956795A2
S1130900B795F795E7959F5FC1F7FE2B880F911D6B
S11309109695879597F90895A29FB001B39FC0015A
S1130920A39F700D811D1124911DB29F700D811D17
S10D09301124911D0895F894FFCFDF
S113093A363020646567726565610033302064650A
S113094A6772656561004E6F747474747474747438
S105095A000097
S9030000FC
